{
  "contractName": "List",
  "abi": [
    {
      "inputs": [],
      "stateMutability": "nonpayable",
      "type": "constructor"
    },
    {
      "inputs": [
        {
          "internalType": "uint256",
          "name": "v",
          "type": "uint256"
        }
      ],
      "name": "add",
      "outputs": [],
      "stateMutability": "nonpayable",
      "type": "function"
    },
    {
      "inputs": [
        {
          "internalType": "uint256",
          "name": "pos",
          "type": "uint256"
        }
      ],
      "name": "deleteAtPosition",
      "outputs": [],
      "stateMutability": "nonpayable",
      "type": "function"
    },
    {
      "inputs": [],
      "name": "getData",
      "outputs": [
        {
          "internalType": "uint256[]",
          "name": "",
          "type": "uint256[]"
        }
      ],
      "stateMutability": "nonpayable",
      "type": "function"
    }
  ],
  "bytecode": "0x608060405234801561001057600080fd5b50600060018190555061031c806100286000396000f3fe608060405234801561001057600080fd5b50600436106100415760003560e01c80631003e2d2146100465780633bc5de301461007457806392691d5d146100d3575b600080fd5b6100726004803603602081101561005c57600080fd5b8101908080359060200190929190505050610101565b005b61007c610122565b6040518080602001828103825283818151815260200191508051906020019060200280838360005b838110156100bf5780820151818401526020810190506100a4565b505050509050019250505060405180910390f35b6100ff600480360360208110156100e957600080fd5b810190808035906020019092919050505061017a565b005b8060006001548154811061011157fe5b906000526020600020018190555050565b6060600080548060200260200160405190810160405280929190818152602001828054801561017057602002820191906000526020600020905b81548152602001906001019080831161015c575b5050505050905090565b606060016000805490500367ffffffffffffffff8111801561019b57600080fd5b506040519080825280602002602001820160405280156101ca5781602001602082028036833780820191505090505b50905060005b8281101561021557600081815481106101e557fe5b90600052602060002001548282815181106101fc57fe5b60200260200101818152505080806001019150506101d0565b5b600080549050811015610260576000818154811061023057fe5b906000526020600020015482828151811061024757fe5b6020026020010181815250508080600101915050610216565b816000908051906020019061027692919061027c565b50505050565b8280548282559060005260206000209081019282156102b8579160200282015b828111156102b757825182559160200191906001019061029c565b5b5090506102c591906102c9565b5090565b5b808211156102e25760008160009055506001016102ca565b509056fea26469706673582212200263b0d4d171b902fbbbca31c7e59eb1af6b6a23ab66a49da8baf8329a3644de64736f6c634300060c0033",
  "immutableReferences": {},
  "source": "// SPDX-License-Identifier: MIT\npragma solidity ^0.6.0;\n\ncontract List {\n\n    uint []data;\n    uint current;\n\n    constructor () public{\n        current = 0;\n    }\n\n    function add(uint v) public {\n        data[current] = v;\n    }\n\n    function deleteAtPosition(uint pos) public{\n        //delete data[pos];\n        uint [] memory newData = new uint[](data.length - 1);\n\n        uint i = 0;\n        for (; i < pos; i++){\n            newData[i] = data[i];\n        }\n\n        for(i + 1; i< data.length; i++){\n            newData[i] = data[i];\n        }\n\n        data = newData;\n     }\n\n    function getData() public returns(uint [] memory){\n        return data;\n    }\n\n}",
  "sourcePath": "/Users/melshami/Projects/dapps/rotating-saving/contracts/List.sol",
  "compiler": {
    "name": "solc",
    "version": "0.6.12+commit.27d51765.Emscripten.clang"
  },
  "schemaVersion": "3.3.1",
  "updatedAt": "2020-12-23T18:20:25.178Z",
  "devdoc": {
    "kind": "dev",
    "methods": {},
    "version": 1
  },
  "userdoc": {
    "kind": "user",
    "methods": {},
    "version": 1
  }
}