{
  "contractName": "RotatingSaving",
  "abi": [
    {
      "inputs": [
        {
          "internalType": "uint256",
          "name": "period",
          "type": "uint256"
        }
      ],
      "stateMutability": "nonpayable",
      "type": "constructor"
    },
    {
      "anonymous": false,
      "inputs": [
        {
          "indexed": true,
          "internalType": "address",
          "name": "sender",
          "type": "address"
        },
        {
          "indexed": false,
          "internalType": "uint256",
          "name": "hatID",
          "type": "uint256"
        }
      ],
      "name": "NewPool",
      "type": "event"
    },
    {
      "inputs": [],
      "name": "rDAI",
      "outputs": [
        {
          "internalType": "contract rToken",
          "name": "",
          "type": "address"
        }
      ],
      "stateMutability": "view",
      "type": "function",
      "constant": true
    },
    {
      "inputs": [],
      "name": "token",
      "outputs": [
        {
          "internalType": "contract IERC20",
          "name": "",
          "type": "address"
        }
      ],
      "stateMutability": "view",
      "type": "function",
      "constant": true
    },
    {
      "inputs": [
        {
          "internalType": "uint256",
          "name": "principal",
          "type": "uint256"
        }
      ],
      "name": "joinNewPool",
      "outputs": [
        {
          "internalType": "bool",
          "name": "",
          "type": "bool"
        }
      ],
      "stateMutability": "nonpayable",
      "type": "function"
    },
    {
      "inputs": [
        {
          "internalType": "uint256",
          "name": "principal",
          "type": "uint256"
        }
      ],
      "name": "joinPool",
      "outputs": [
        {
          "internalType": "bool",
          "name": "",
          "type": "bool"
        }
      ],
      "stateMutability": "nonpayable",
      "type": "function"
    },
    {
      "inputs": [],
      "name": "claimInterest",
      "outputs": [
        {
          "internalType": "bool",
          "name": "",
          "type": "bool"
        }
      ],
      "stateMutability": "nonpayable",
      "type": "function"
    },
    {
      "inputs": [],
      "name": "withdraw",
      "outputs": [
        {
          "internalType": "bool",
          "name": "",
          "type": "bool"
        }
      ],
      "stateMutability": "nonpayable",
      "type": "function"
    },
    {
      "inputs": [],
      "name": "getCurrentPardner",
      "outputs": [
        {
          "internalType": "address",
          "name": "",
          "type": "address"
        }
      ],
      "stateMutability": "view",
      "type": "function",
      "constant": true
    },
    {
      "inputs": [],
      "name": "getBalance",
      "outputs": [
        {
          "internalType": "uint256",
          "name": "",
          "type": "uint256"
        }
      ],
      "stateMutability": "view",
      "type": "function",
      "constant": true
    },
    {
      "inputs": [],
      "name": "getPoolSize",
      "outputs": [
        {
          "internalType": "uint256",
          "name": "",
          "type": "uint256"
        }
      ],
      "stateMutability": "view",
      "type": "function",
      "constant": true
    }
  ],
  "bytecode": "0x6080604052601460005534801561001557600080fd5b50604051611a4b380380611a4b8339818101604052602081101561003857600080fd5b81019080805190602001909291905050506000600260006101000a81548160ff0219169083151502179055506000600781905550600060038190555060018102600a81905550506119bd8061008e6000396000f3fe608060405234801561001057600080fd5b50600436106100935760003560e01c806335981fd81161006657806335981fd81461014c5780633ccfd60b1461016c57806383dca9061461018c57806385fa6d0e146101d0578063fc0c546a1461020457610093565b806312065fe01461009857806323845e4b146100b65780633116b38f146100d457806334e7a19f14610108575b600080fd5b6100a0610238565b6040518082815260200191505060405180910390f35b6100be6102f5565b6040518082815260200191505060405180910390f35b6100dc610302565b604051808273ffffffffffffffffffffffffffffffffffffffff16815260200191505060405180910390f35b6101346004803603602081101561011e57600080fd5b810190808035906020019092919050505061035a565b60405180821515815260200191505060405180910390f35b6101546106ef565b60405180821515815260200191505060405180910390f35b61017461096c565b60405180821515815260200191505060405180910390f35b6101b8600480360360208110156101a257600080fd5b8101908080359060200190929190505050610c0a565b60405180821515815260200191505060405180910390f35b6101d86110b0565b604051808273ffffffffffffffffffffffffffffffffffffffff16815260200191505060405180910390f35b61020c6110c8565b604051808273ffffffffffffffffffffffffffffffffffffffff16815260200191505060405180910390f35b600073261b45d85ccfeabb11f022eba346ee8d1cd488c073ffffffffffffffffffffffffffffffffffffffff166370a08231306040518263ffffffff1660e01b8152600401808273ffffffffffffffffffffffffffffffffffffffff16815260200191505060206040518083038186803b1580156102b557600080fd5b505afa1580156102c9573d6000803e3d6000fd5b505050506040513d60208110156102df57600080fd5b8101908080519060200190929190505050905090565b6000600680549050905090565b60008060068054905011156103525760066007548154811061032057fe5b9060005260206000200160009054906101000a900473ffffffffffffffffffffffffffffffffffffffff169050610357565b600090505b90565b600080600381111561036857fe5b600160003373ffffffffffffffffffffffffffffffffffffffff1673ffffffffffffffffffffffffffffffffffffffff16815260200190815260200160002060000160009054906101000a900460ff1660038111156103c357fe5b14610419576040517f08c379a00000000000000000000000000000000000000000000000000000000081526004018080602001828103825260238152602001806119336023913960400191505060405180910390fd5b600854821015610474576040517f08c379a00000000000000000000000000000000000000000000000000000000081526004018080602001828103825260328152602001806119566032913960400191505060405180910390fd5b6000546006805490501061048757600080fd5b736b175474e89094c44da98b954eedeac495271d0f73ffffffffffffffffffffffffffffffffffffffff166323b872dd3330856040518463ffffffff1660e01b8152600401808473ffffffffffffffffffffffffffffffffffffffff1681526020018373ffffffffffffffffffffffffffffffffffffffff1681526020018281526020019350505050602060405180830381600087803b15801561052a57600080fd5b505af115801561053e573d6000803e3d6000fd5b505050506040513d602081101561055457600080fd5b8101908080519060200190929190505050506105718260006110e0565b506006339080600181540180825580915050600190039060005260206000200160009091909190916101000a81548173ffffffffffffffffffffffffffffffffffffffff021916908373ffffffffffffffffffffffffffffffffffffffff1602179055506040518060800160405280600160038111156105ed57fe5b81526020013373ffffffffffffffffffffffffffffffffffffffff168152602001838152602001600160068054905003815250600160003373ffffffffffffffffffffffffffffffffffffffff1673ffffffffffffffffffffffffffffffffffffffff16815260200190815260200160002060008201518160000160006101000a81548160ff0219169083600381111561068357fe5b021790555060208201518160000160016101000a81548173ffffffffffffffffffffffffffffffffffffffff021916908373ffffffffffffffffffffffffffffffffffffffff160217905550604082015181600101556060820151816002015590505060019050919050565b600073261b45d85ccfeabb11f022eba346ee8d1cd488c073ffffffffffffffffffffffffffffffffffffffff1663d007c644600560009054906101000a900473ffffffffffffffffffffffffffffffffffffffff166040518263ffffffff1660e01b8152600401808273ffffffffffffffffffffffffffffffffffffffff168152602001915050602060405180830381600087803b15801561079057600080fd5b505af11580156107a4573d6000803e3d6000fd5b505050506040513d60208110156107ba57600080fd5b810190808051906020019092919050505061083d576040517f08c379a00000000000000000000000000000000000000000000000000000000081526004018080602001828103825260118152602001807f496e746572657374206e6f74207061696400000000000000000000000000000081525060200191505060405180910390fd5b600a5460095401421115610965576006805490506001600754018161085e57fe5b0660078190555060066007548154811061087457fe5b9060005260206000200160009054906101000a900473ffffffffffffffffffffffffffffffffffffffff16600560006101000a81548173ffffffffffffffffffffffffffffffffffffffff021916908373ffffffffffffffffffffffffffffffffffffffff1602179055506108eb600060016110e0565b61095d576040517f08c379a00000000000000000000000000000000000000000000000000000000081526004018080602001828103825260158152602001807f4861742073656c656374696f6e206661696c65642e000000000000000000000081525060200191505060405180910390fd5b426009819055505b6001905090565b60006001600381111561097b57fe5b600160003373ffffffffffffffffffffffffffffffffffffffff1673ffffffffffffffffffffffffffffffffffffffff16815260200190815260200160002060000160009054906101000a900460ff1660038111156109d657fe5b146109e057600080fd5b6002600160003373ffffffffffffffffffffffffffffffffffffffff1673ffffffffffffffffffffffffffffffffffffffff16815260200190815260200160002060000160006101000a81548160ff02191690836003811115610a3f57fe5b021790555073261b45d85ccfeabb11f022eba346ee8d1cd488c073ffffffffffffffffffffffffffffffffffffffff1663d271be3f33600160003373ffffffffffffffffffffffffffffffffffffffff1673ffffffffffffffffffffffffffffffffffffffff168152602001908152602001600020600101546040518363ffffffff1660e01b8152600401808373ffffffffffffffffffffffffffffffffffffffff16815260200182815260200192505050602060405180830381600087803b158015610b0b57600080fd5b505af1158015610b1f573d6000803e3d6000fd5b505050506040513d6020811015610b3557600080fd5b8101908080519060200190929190505050506000600160003373ffffffffffffffffffffffffffffffffffffffff1673ffffffffffffffffffffffffffffffffffffffff16815260200190815260200160002060010181905550610bda600160003373ffffffffffffffffffffffffffffffffffffffff1673ffffffffffffffffffffffffffffffffffffffff16815260200190815260200160002060020154611766565b60006006805490501115610c035760068054905060016007540181610bfb57fe5b066007819055505b6001905090565b600060011515600260009054906101000a900460ff1615151415610c3157600090506110ab565b33600460006101000a81548173ffffffffffffffffffffffffffffffffffffffff021916908373ffffffffffffffffffffffffffffffffffffffff1602179055600560006101000a81548173ffffffffffffffffffffffffffffffffffffffff021916908373ffffffffffffffffffffffffffffffffffffffff16021790555081600881905550736b175474e89094c44da98b954eedeac495271d0f73ffffffffffffffffffffffffffffffffffffffff1663095ea7b373261b45d85ccfeabb11f022eba346ee8d1cd488c0600054600854026040518363ffffffff1660e01b8152600401808373ffffffffffffffffffffffffffffffffffffffff16815260200182815260200192505050602060405180830381600087803b158015610d5757600080fd5b505af1158015610d6b573d6000803e3d6000fd5b505050506040513d6020811015610d8157600080fd5b810190808051906020019092919050505050736b175474e89094c44da98b954eedeac495271d0f73ffffffffffffffffffffffffffffffffffffffff166323b872dd33306008546040518463ffffffff1660e01b8152600401808473ffffffffffffffffffffffffffffffffffffffff1681526020018373ffffffffffffffffffffffffffffffffffffffff1681526020018281526020019350505050602060405180830381600087803b158015610e3857600080fd5b505af1158015610e4c573d6000803e3d6000fd5b505050506040513d6020811015610e6257600080fd5b810190808051906020019092919050505050610e8160085460006110e0565b506006600560009054906101000a900473ffffffffffffffffffffffffffffffffffffffff169080600181540180825580915050600190039060005260206000200160009091909190916101000a81548173ffffffffffffffffffffffffffffffffffffffff021916908373ffffffffffffffffffffffffffffffffffffffff160217905550604051806080016040528060016003811115610f1f57fe5b81526020013373ffffffffffffffffffffffffffffffffffffffff1681526020018381526020016000815250600160003373ffffffffffffffffffffffffffffffffffffffff1673ffffffffffffffffffffffffffffffffffffffff16815260200190815260200160002060008201518160000160006101000a81548160ff02191690836003811115610fae57fe5b021790555060208201518160000160016101000a81548173ffffffffffffffffffffffffffffffffffffffff021916908373ffffffffffffffffffffffffffffffffffffffff16021790555060408201518160010155606082015181600201559050504260098190555060006001600260006101000a81548160ff021916908315150217905550600560009054906101000a900473ffffffffffffffffffffffffffffffffffffffff1673ffffffffffffffffffffffffffffffffffffffff167fbe4222bc407cb12031595fc55b46531e46308d31e4572c9c4360d8ae790e1a31826040518082815260200191505060405180910390a260019150505b919050565b73261b45d85ccfeabb11f022eba346ee8d1cd488c081565b736b175474e89094c44da98b954eedeac495271d0f81565b60006060600167ffffffffffffffff811180156110fc57600080fd5b5060405190808252806020026020018201604052801561112b5781602001602082028036833780820191505090505b5090506060600167ffffffffffffffff8111801561114857600080fd5b506040519080825280602002602001820160405280156111775781602001602082028036833780820191505090505b509050600560009054906101000a900473ffffffffffffffffffffffffffffffffffffffff16826000815181106111aa57fe5b602002602001019073ffffffffffffffffffffffffffffffffffffffff16908173ffffffffffffffffffffffffffffffffffffffff16815250506064816000815181106111f357fe5b602002602001019063ffffffff16908163ffffffff16815250508315611367576000600354905073261b45d85ccfeabb11f022eba346ee8d1cd488c073ffffffffffffffffffffffffffffffffffffffff16635cde5055848460016040518463ffffffff1660e01b81526004018080602001806020018415158152602001838103835286818151815260200191508051906020019060200280838360005b838110156112ac578082015181840152602081019050611291565b50505050905001838103825285818151815260200191508051906020019060200280838360005b838110156112ee5780820151818401526020810190506112d3565b5050505090500195505050505050602060405180830381600087803b15801561131657600080fd5b505af115801561132a573d6000803e3d6000fd5b505050506040513d602081101561134057600080fd5b81019080805190602001909291905050506003819055506003548114159350505050611760565b600060035414156116af57600073261b45d85ccfeabb11f022eba346ee8d1cd488c073ffffffffffffffffffffffffffffffffffffffff1663b5dbfc1a8785856040518463ffffffff1660e01b8152600401808481526020018060200180602001838103835285818151815260200191508051906020019060200280838360005b838110156114035780820151818401526020810190506113e8565b50505050905001838103825284818151815260200191508051906020019060200280838360005b8381101561144557808201518184015260208101905061142a565b5050505090500195505050505050602060405180830381600087803b15801561146d57600080fd5b505af1158015611481573d6000803e3d6000fd5b505050506040513d602081101561149757600080fd5b8101908080519060200190929190505050905073261b45d85ccfeabb11f022eba346ee8d1cd488c073ffffffffffffffffffffffffffffffffffffffff1663054ab01a306040518263ffffffff1660e01b8152600401808273ffffffffffffffffffffffffffffffffffffffff16815260200191505060006040518083038186803b15801561152557600080fd5b505afa158015611539573d6000803e3d6000fd5b505050506040513d6000823e3d601f19601f82011682018060405250606081101561156357600080fd5b81019080805190602001909291908051604051939291908464010000000082111561158d57600080fd5b838201915060208201858111156115a357600080fd5b82518660208202830111640100000000821117156115c057600080fd5b8083526020830192505050908051906020019060200280838360005b838110156115f75780820151818401526020810190506115dc565b505050509050016040526020018051604051939291908464010000000082111561162057600080fd5b8382019150602082018581111561163657600080fd5b825186602082028301116401000000008211171561165357600080fd5b8083526020830192505050908051906020019060200280838360005b8381101561168a57808201518184015260208101905061166f565b5050505090500160405250505090505060036000829190505550809350505050611760565b73261b45d85ccfeabb11f022eba346ee8d1cd488c073ffffffffffffffffffffffffffffffffffffffff1663388c0b8c866003546040518363ffffffff1660e01b81526004018083815260200182815260200192505050602060405180830381600087803b15801561172057600080fd5b505af1158015611734573d6000803e3d6000fd5b505050506040513d602081101561174a57600080fd5b8101908080519060200190929190505050925050505b92915050565b600160068054905014156117b957600680548061177f57fe5b6001900381819060005260206000200160006101000a81549073ffffffffffffffffffffffffffffffffffffffff0219169055905561192f565b60008190505b6001600680549050038110156118ed576001810360016000600684815481106117e457fe5b9060005260206000200160009054906101000a900473ffffffffffffffffffffffffffffffffffffffff1673ffffffffffffffffffffffffffffffffffffffff1673ffffffffffffffffffffffffffffffffffffffff168152602001908152602001600020600201819055506006600182018154811061186057fe5b9060005260206000200160009054906101000a900473ffffffffffffffffffffffffffffffffffffffff166006828154811061189857fe5b9060005260206000200160006101000a81548173ffffffffffffffffffffffffffffffffffffffff021916908373ffffffffffffffffffffffffffffffffffffffff16021790555080806001019150506117bf565b5060068054806118f957fe5b6001900381819060005260206000200160006101000a81549073ffffffffffffffffffffffffffffffffffffffff021916905590555b5056fe4163636f756e74206164647265737320616c726561647920696e2074686520706f6f6c4d696e696d756d205072696e636970616c20416d6f756e7420526571756972656420746f204a6f696e2074686520506f6f6ca264697066735822122013f09b7447c66615522f3b42e7d6599a6fc5cfe4ddd01f444ed2b7e4ad600a3064736f6c634300060c0033",
  "immutableReferences": {},
  "source": "// SPDX-License-Identifier: MIT\npragma solidity >=0.6.0 <0.7.0;\n\nimport {IERC20} from \"@openzeppelin/contracts/token/ERC20/IERC20.sol\";\nimport {rToken} from \"./rToken.sol\";\n\ncontract RotatingSaving {\n\n  //rToken public constant rDAI = rToken(0x462303f77a3f17Dbd95eb7bab412FE4937F9B9CB);\n  //IERC20  public constant token = IERC20(0x4F96Fe3b7A6Cf9725f59d353F723c1bDb64CA6Aa);\n  rToken public constant rDAI = rToken(0x261b45D85cCFeAbb11F022eBa346ee8D1cd488c0);\n  IERC20 public constant token = IERC20(0x6B175474E89094C44Da98b954EedeAC495271d0F);\n\n  uint256 MAX_PARTICIPANTS = 20;\n\n  enum Status {\n    UNDEFINED,\n    ACTIVE,\n    COMPLETED,\n    PASS\n  }\n\n  struct Pardner {\n    Status status;\n    address addr;\n    uint256 principal;\n    uint256 position;\n  }\n\n  mapping (address => Pardner) pardnersPool;\n\n  bool initialized;\n  uint256 currentHatID;\n  address operator;\n  address beneficiary;\n\n  address [] pardners;\n  uint256 currentPardner;\n\n  uint256 minPoolPrincipal;\n  uint256 epochStartTime;\n  uint256 rotationPeriod;\n\n  event NewPool(address indexed sender, uint256 hatID);\n\n  constructor(uint256 period) public {\n    initialized = false;\n    currentPardner = 0;\n    currentHatID   = 0;\n    rotationPeriod = period * 1 seconds;\n  }\n\n  /*\n  *\n  * Who ever creates the pool becomes the first beneficiary of the pool and the first to accrue\n  * interest.\n  *\n  */\n  function joinNewPool(uint256 principal) external returns(bool) {\n    if (initialized == true) {\n      return false;\n    }\n    beneficiary = operator = address(msg.sender);\n    minPoolPrincipal = principal;\n\n    token.approve(address(rDAI), minPoolPrincipal * MAX_PARTICIPANTS); // Give rDAI enough allowance to cover pool size\n    token.transferFrom(msg.sender, address(this), minPoolPrincipal);\n    //balance = token.balanceOf(address(this));\n    selectHat(minPoolPrincipal, false);\n\n    pardners.push(beneficiary);\n    pardnersPool[msg.sender] = Pardner(Status.ACTIVE,\n                                       msg.sender,\n                                       principal,\n                                       0);\n    epochStartTime = now;\n    uint256 poolID = 0;\n    initialized    = true;\n\n    emit NewPool(beneficiary, poolID);\n\n    return true;\n  }\n\n  /*\n  * Join an existing pool creates a hat for the existing beneficiary and takes the next place in the rota\n  */\n  function joinPool(uint256 principal) external returns(bool) {\n    require(pardnersPool[msg.sender].status == Status.UNDEFINED, \"Account address already in the pool\");\n    require(principal >= minPoolPrincipal, \"Minimum Principal Amount Required to Join the Pool\");\n    require(pardners.length < MAX_PARTICIPANTS);\n\n    token.transferFrom(msg.sender, address(this), principal);\n    //balance = balance + token.balanceOf(address(this));\n    selectHat(principal, false);\n\n    pardners.push(msg.sender);\n    pardnersPool[msg.sender] = Pardner(Status.ACTIVE,\n                                        msg.sender,\n                                        principal,\n                                        pardners.length - 1);\n    return true;\n  }\n\n  function claimInterest() external returns(bool) {\n    require(rDAI.payInterest(beneficiary), \"Interest not paid\");\n    if(now > epochStartTime + rotationPeriod) {\n      currentPardner = (currentPardner + 1) % pardners.length;\n      beneficiary = pardners[currentPardner];\n      require(selectHat(0, true), \"Hat selection failed.\");\n      epochStartTime = now;\n    }\n    return true;\n  }\n\n  function withdraw() external returns(bool) {\n    require(pardnersPool[msg.sender].status == Status.ACTIVE);\n    //todo: additional time/cycle lock condition\n    pardnersPool[msg.sender].status = Status.COMPLETED;\n    rDAI.redeemAndTransfer(msg.sender,pardnersPool[msg.sender].principal);\n    pardnersPool[msg.sender].principal = 0;\n    removePardner( pardnersPool[msg.sender].position );\n    if (pardners.length > 0){\n      currentPardner = (currentPardner + 1) % pardners.length;\n    }\n    //token.transferFrom(address(this), msg.sender, pardnersPool[msg.sender].principal);\n    //balance = balance - token.balanceOf(address(this));\n    return true;\n  }\n\n function removePardner(uint idx) private {\n    if (pardners.length == 1) {\n      pardners.pop();\n      return;\n    }\n\n    for (uint i = idx; i<pardners.length - 1; i++){\n      pardnersPool[pardners[i]].position = i - 1;\n      pardners[i] = pardners[i + 1];\n    }\n\n    pardners.pop();\n  }\n\n  function selectHat(uint256 _principal, bool rotate) private returns(bool) {\n    address [] memory participants = new address[](1);\n    uint32 [] memory proportions = new uint32[](1);\n    participants[0] = beneficiary;\n    proportions[0]  = 100;\n\n    if (rotate){\n      uint256 oldHatID = currentHatID;\n      currentHatID = rDAI.createHat(participants, proportions, true);\n      return (oldHatID != currentHatID);\n    }\n\n    if (currentHatID == 0) {\n      bool done = rDAI.mintWithNewHat(_principal, participants, proportions);\n      (currentHatID,,) = rDAI.getHatByAddress(address(this));\n      return done;\n    } else {\n      return rDAI.mintWithSelectedHat(_principal, currentHatID);\n    }\n  }\n\n  function getCurrentPardner() public view returns(address) {\n    if (pardners.length > 0){\n      return pardners[currentPardner];\n    }\n    return address(0);\n  }\n\n  function getBalance() public view returns(uint256) {\n    return rDAI.balanceOf(address(this));\n  }\n\n  function getPoolSize() public view returns(uint) {\n    return pardners.length;\n  }\n\n}\n",
  "sourcePath": "/Users/melshami/Projects/dapps/rotating-saving/contracts/RotatingSaving.sol",
  "compiler": {
    "name": "solc",
    "version": "0.6.12+commit.27d51765.Emscripten.clang"
  },
  "schemaVersion": "3.3.3",
  "updatedAt": "2021-01-21T21:18:56.087Z",
  "networkType": "ethereum",
  "devdoc": {
    "kind": "dev",
    "methods": {},
    "version": 1
  },
  "userdoc": {
    "kind": "user",
    "methods": {},
    "version": 1
  }
}